:020000040800F2
:10000000E0A00020AD0300080F2F0008DB29000846
:100010000D2F0008F1090008093100080000000058
:10002000000000000000000000000000E9020008DD
:100030008D0D00080000000045030008492F00084E
:10004000C7030008C7030008C7030008C703000868
:10005000C7030008C7030008C7030008C703000858
:10006000C7030008C7030008C7030008C703000848
:10007000C7030008C7030008C7030008C703000838
:10008000C7030008C7030008C7030008C703000828
:10009000C7030008C7030008C7030008C703000818
:1000A000C7030008C7030008C7030008C703000808
:1000B000C7030008C7030008C7030008C7030008F8
:1000C000C7030008C7030008C7030008C7030008E8
:1000D000C7030008C7030008C7030008C7030008D8
:1000E000C7030008C7030008C7030008C7030008C8
:1000F000C7030008C7030008C7030008C7030008B8
:10010000C7030008C7030008C7030008C7030008A7
:10011000C7030008C7030008C70300082D30000804
:10012000C7030008C7030008C7030008C703000887
:10013000C7030008C7030008C7030008C703000877
:10014000C7030008C7030008C7030008C703000867
:10015000C7030008C7030008C7030008C703000857
:10016000C7030008C7030008C7030008C703000847
:10017000C7030008C7030008C70300080000000009
:10018000C7030008C7030008C7030008C703000827
:10019000C7030008C7030008C7030008C703000817
:1001A000DD290008C70300085D0D0008C70300082B
:1001B000C7030008C7030008C7030008C7030008F7
:1001C000C7030008C703000800000000C7030008B9
:1001D000C7030008C7030008C7030008C7030008D7
:1001E000C7030008C7030008C7030008C7030008C7
:1001F000C7030008C703000800F002F800F065F824
:100200000AA090E8000C82448344AAF10107DA4571
:1002100001D100F05AF8AFF2090EBAE80F0013F05E
:10022000010F18BFFB1A43F001031847CC0D020061
:10023000EC0D02000A444FF0000C10F8013B13F0E3
:10024000070408BF10F8014B1D1108BF10F8015B2F
:10025000641E05D010F8016B641E01F8016BF9D122
:1002600013F0080F1EBF10F8014BAD1C0C1B09D179
:100270006D1E58BF01F801CBFAD505E014F8016BEB
:1002800001F8016B6D1EF9D59142D6D3704700007D
:100290000023002400250026103A28BF78C1FBD88F
:1002A000520728BF30C148BF0B6070471FB50BF025
:1002B000C1FE9DE8030000F097FA00F0D1F91FBDE0
:1002C00010B5002000F03EFA10BD00F0F9FA11461A
:1002D000FFF7ECFF0AF0A4F900F031FB03B4FFF7DD
:1002E000EFFF03BC00F0CEF92D4B19680868B0E8A9
:1002F000F04F80F30988BFF36F8F4FF0000080F359
:10030000118870470000000008480068006880F30A
:1003100008884FF0000080F3148862B661B6BFF31E
:100320004F8FBFF36F8F00DF00BF00BF08ED00E00D
:10033000DFF80C00016841F470010160704700BFF4
:1003400088ED00E0EFF30980BFF36F8F144B1A685C
:100350001EF0100F08BF20ED108A20E9F04F10604A
:1003600009B44FF0500072B680F31188BFF34F8F7D
:10037000BFF36F8F62B60AF06BFF4FF0000080F39F
:10038000118809BC19680868B0E8F04F1EF0100F1A
:1003900008BFB0EC108A80F30988BFF36F8F7047F5
:1003A00038000020EFF305807047000009488047BF
:1003B00009480047FEE7FEE7FEE7FEE7FEE7FEE747
:1003C000FEE7FEE7FEE7FEE704480549054A064B5F
:1003D000704700001D300008F9010008E09000207F
:1003E000E0A00020E0980020E098002053EA020CF2
:1003F00000F069802DE9F04B4FF00006002B1FBF85
:10040000B3FA83F503FA05F424FA05F65E4012BF49
:100410001643B2FA82F502FA05F4C5F120051EBFB3
:1004200022FA05FC44EA0C04203556EA044C4FEA53
:10043000144418BF641C4FF000084FF000099042AC
:1004400071EB030C39D3002919BFB1FA81F701FA16
:1004500007F6B0FA80F700FA07F6C7F120071EBFCB
:1004600020FA07FC46EA0C062037B6FBF4FCA7EBA3
:100470000507103F07F01F0BCBF120060CFA0BFB12
:100480002CFA06F644BFB3460026202FA4BF5E46D2
:100490004FF0000B5BEA060C08BF4FF0010B19EBA5
:1004A0000B09ABFB027C48EB0608C01B06FB02CC29
:1004B0000BFB03CC71EB0C01C1E70B460246414636
:1004C0004846BDE8F08B13B54FF000004FF0000137
:1004D000AFF30080BDE81C40704710B5002000F06D
:1004E00052F9FFF7EDFEBDE81040012000F0CAB858
:1004F0002DE9F041074615460E46102000F0CCF8D5
:1005000004000AD06760C4E9026500F0C1F8016820
:10051000216004600020BDE8F0810120FBE7032A90
:1005200040F2308010F0030C00F0158011F8013B10
:10053000BCF1020F624498BF11F801CB00F8013BF7
:1005400038BF11F8013BA2F1040298BF00F801CBBB
:1005500038BF00F8013B11F0030300F02580083A92
:10056000C0F0088051F8043B083A51F804CBA0E8E9
:100570000810F5E7121D5CBF51F8043B40F8043B3E
:10058000AFF30080D20724BF11F8013B11F801CB73
:1005900048BF11F8012B24BF00F8013B00F801CB44
:1005A00048BF00F8012B704710B5203AC0F00B800F
:1005B000B1E81850203AA0E81850B1E81850A0E867
:1005C0001850BFF4F5AF5FEA027C24BFB1E81850C1
:1005D000A0E8185044BF18C918C0BDE810405FEA31
:1005E000827C24BF51F8043B40F8043B08BF7047AD
:1005F000D20728BF31F8023B48BF11F8012B28BFB2
:1006000020F8023B48BF00F8012B70474FF0000272
:1006100000B5134694469646203922BFA0E80C50F8
:10062000A0E80C50B1F12001BFF4F7AF090728BFD3
:10063000A0E80C5048BF0CC05DF804EB890028BF4F
:1006400040F8042B08BF704748BF20F8022B11F078
:10065000804F18BF00F8012B7047704770477047F4
:1006600070B5064C7C44064D7D4403E02068204470
:100670008047241DAC42F9D170BD0000E0090200A2
:10068000EC09020001491820ABBEFEE7260002007B
:1006900000487047F88C002070B5064600F088F8D6
:1006A000056806F10B0020F00704B4429CBF00204F
:1006B00070BD2B466A68BAB11068A04210D304F12D
:1006C000080188423CBF5068586007D35168101930
:1006D00041601168091B016058601460101D70BDF5
:1006E00013465268002AE7D12146284600F068F8F0
:1006F0000028DED170BD70B50446051F00F058F823
:100700000068002C14BF446870BD002C18BFAC42B8
:100710003CBF20466468F8D301680A18AA4218BF93
:10072000456003D12A6805461144016028684119D3
:10073000A1421CBF6C6070BD61686960216808449B
:10074000286070BD2DE9F0410646FFF7A1FF804605
:10075000454613E016B1E068B0420ED1206828602B
:10076000D4E90101D8F8007088472046FFF7C3FF9D
:10077000D8F80000B842EBD100E025462C68002CE8
:10078000E8D1BDE8F08110B500F06AF8BDE810408E
:1007900000F060B810B500F07BF8BDE8104000F044
:1007A00059B8000000487047C08C00207047000016
:1007B00000487047C88C00207047704770477047EA
:1007C00038B504460A4600206946AFF30080002889
:1007D00008BF38BD02460099204600F096F8012077
:1007E00038BD012000F0CDB8F8B5AFF30080054664
:1007F00000200C46102000BF0646A819A0420DD9C3
:10080000324669460020AFF30080070008BF00F0C1
:10081000B8F80098A04218BF0546C419FFF7C8FFF2
:1008200005600746F01D20F007004619284600F035
:100830000AF8B44208BFF8BDA21B31463868BDE8CB
:10084000F84000F062B800210160C0E90110704773
:1008500010207047002801D0FFF714BF7047000038
:1008600010B5002102A000F073F8012010BD0000B7
:10087000534947414252543A2041626E6F726D6152
:100880006C207465726D696E6174696F6E00000032
:1008900010B5002102A000F05BF8012010BD00009F
:1008A0005349475056464E3A205075726520766936
:1008B000727475616C20666E2063616C6C65640097
:1008C0007546FFF76FFFAE4605006946534620F0B8
:1008D0000700854618B020B5FFF776FDBDE820403B
:1008E0004FF000064FF000074FF000084FF0000BEC
:1008F00021F00701AC46ACE8C009ACE8C009ACE89F
:10090000C009ACE8C0098D467047034640688C4674
:10091000002818BF88423CBF03464068F8D31868D7
:100920001844884207D00CF1030020F00700001D96
:10093000411A521A0146081D0A60FFF7DCBE10B5C5
:100940000446AFF300802046BDE81040FFF7C6BC68
:1009500070B505460C460A2000E06D1C00F018F842
:1009600035B128780028F8D102E0641C00F010F8B6
:1009700014B120780028F8D1BDE870400A2000F0BA
:1009800007B810B500F00CF8BDE81040FFF762BFE3
:1009900008B569468DF800000320ABBE08BD000015
:1009A00010B5012805D0002103A0FFF7D1FF0120D9
:1009B00010BD09A1F8E7000053494752544D454D79
:1009C0003A204F7574206F662068656170206D65F0
:1009D0006D6F7279000000003A2048656170206DEB
:1009E000656D6F727920636F7272757074656400E3
:1009F000FEE70000214A30B5136823F001031360BD
:100A00001F4A1368C3F30B140123A4F54065243D6A
:100A100006D01268C2F30B12A2F54064273C17D12E
:100A2000184A1268A2B9184A14684FF08A45B5EB03
:100A3000045F18D01468C4F30B04A4F58065833DEB
:100A400011D01268C2F30B02A2F58064853C0AD073
:100A50000E4A93609368002BFCD1106010688842A6
:100A600009D0002030BD0A4A13601368002BFCD166
:100A7000074A083AF1E7012030BD0000002000E0FD
:100A800000ED00E0002004E00010005C00300240B7
:100A9000084C025870B50D4D00240D48C5F8984219
:100AA00001680C4A21F0C0010160016841F0400179
:100AB0000160C2F88C42012005F5267509F08EFD13
:100AC0000120286009F08AFD2C6070BD008043423F
:100AD0000020024000004442154810B586B001686D
:100AE00041F080010160016801F080010591016819
:100AF00041F48071016000680124032100F48070DA
:100B000005904020CDE90004CDE90241094869463D
:100B100000F02CFC082000900748694600F026FCF5
:100B200006480749C0F88C42C1F8984206B010BD8B
:100B300030380240001C02400020024000004442C5
:100B40000080434270B50E4C00250E48C4F8985200
:100B5000016801260C4A21F0C0010160016841F0E2
:100B600040010160C2F88C6204F52674304609F039
:100B700035FD2660012009F031FD256070BD0000C3
:100B80000080434200200240000044422DE9F0472B
:100B9000824619480168002421F0C0010160016803
:100BA0000160012009F01AFD144E0025DFF8509075
:100BB0002F464FF0010800BFC6F89872012009F0D7
:100BC0000DFD6206C6F89882D9F80C02140E08B121
:100BD000641CE4B2012009F001FD6D1CEDB2082D8A
:100BE000EAD3BAF1000F04D0FFF754FF2046BDE866
:100BF000F087FFF7A7FFF9E700200240008043429B
:100C0000000044422DE9F0470646164800270168D7
:100C1000154D21F0C0010160016841F04001016003
:100C2000C5F89872012009F0D9FCDFF84090002443
:100C30004FF00108F1097206C9F88C120120160E56
:100C400009F0CCFCC5F89882012009F0C7FCC5F872
:100C50009872012009F0C2FC641CE4B2082CE9D3AC
:100C6000BDE8F0870020024000804342000044427B
:100C70000F48012170B502680E4C0F4D22F0C002E2
:100C80000260026842F040020260C4F88C12C5F8AB
:100C9000981204F5237405F52675084609F09EFCA4
:100CA00000262660012009F099FC2E6070BD00002E
:100CB0000020024000004442008043420F480021CF
:100CC00070B502680E4C0F4D22F0C002026002683F
:100CD00042F040020260C4F89812C5F88C1201205C
:100CE00004F5267405F5237509F078FC01262660C5
:100CF000304609F073FC2E6070BD000000200240F9
:100D000000804342000044421148012170B502684E
:100D1000104D114E22F0C0020260026800240260F1
:100D2000C5F88C12C6F8981207E0641CE4B2FA2CDD
:100D300003D9FFF7C3FF012070BD012009F04EFC6D
:100D4000D5F80C020028F0D1C6F8980270BD00005A
:100D500000200240000044420080434209484168AC
:100D600089070ED5016889050BD50268022122F496
:100D70000072026081600448006840680168496947
:100D80000847704700B00240E8010020704772B683
:100D9000FEE7F0B5D1E90843CD690A68C2B102683F
:100DA000254322F4F84213431D430560D1E9012590
:100DB000D1E903364C692A434568334389691A43AC
:100DC000EB0B2243DB030A431A4342600020F0BDD1
:100DD000D1E9012ED1E9036CD1E9057142EA0E0295
:100DE00046EA0C0632433A430A4301682A43224347
:100DF0001A436FF30E010A430260E7E7426943F6C4
:100E0000FE739A4342EA410141610020704770B588
:100E100091E81C00C9686FF01F0506691A4305EBCD
:100E2000441444EA41210A4306EA45431A43026155
:100E3000002070BD2DE9F04F8B8A6FF00F05264C16
:100E40004FF07F4BD1F80C9004EB03536FF0FF048D
:100E50004FEA042A1AB386684FEA09321F4FA2F5F7
:100E600080521A433E4032438260D1E900278E68A7
:100E7000521E05EB07150F8A2A43C56804EB0624AA
:100E80000E7E0AEB074322431A430BEB06610A432B
:100E900005F070431A43C2600020BDE8F08F91E86E
:100EA00004110F4E521E0F8A05EB08152A4304EB5E
:100EB0000C2C06EB09350E7E42EA0C022A438568AB
:100EC0000AEB074422431A430BEB06610A4305F081
:100ED00070431A438260DFE70000F0FFFF0F0FFF4F
:100EE00000F0FFFF354870B588B0016841F080011F
:100EF0000160016801F080010691016841F4807190
:100F0000016000680321002500F480700690012430
:100F10008020CDE90341CDE90105294801A900F070
:100F200025FA2002CDE90104264801A900F01EFAA5
:100F3000FFF7D2FD244EC6F8A042782006F52876A9
:100F400009F046FB3560142009F042FB3460642050
:100F500009F03EFB0122694600208DF8005000F0A8
:100F600060F801226946A42000F05BF8162069466B
:100F700001228DF80000802000F053F80C20694613
:100F800001228DF80000882000F04BF8022269460B
:100F9000A12000F01BF89DF80000302803D19DF837
:100FA0000100032808D09DF80100012804D0022880
:100FB00002D0012008B070BD0020FBE730380240AD
:100FC000001C024000200240000044422DE9F04194
:100FD00015460F460446FFF74BFE7020FFF712FE42
:100FE000FFF792FEE0B2FFF70DFEFFF78DFEFFF771
:100FF0003FFE7120FFF706FEFFF786FE6E1E0024FF
:1010000009E0B44201D0012000E00020FFF7BEFD5E
:10101000611C3855CCB2AC42F3D3BDE8F041FFF7C8
:101020004DBE2DE9F041002516460F460446FFF758
:101030001FFE7020FFF7E6FDFFF766FEE0B2FFF748
:10104000E1FDFFF761FE002408E0385DFFF7DAFDFF
:10105000FFF75AFE050003D1641CE4B2B442F4D396
:10106000FFF72CFE2846BDE8F081F0B501260446C6
:1010700000201E2301E05B1E05D303F01F0706FAC4
:1010800007F50D42F7D072B1082A0AD0102A05D010
:10109000182A01D1072B06D30120F0BD082BFBD263
:1010A00001E0102BF8D22368596121688B6823F086
:1010B000180313438B60F0BD10B5040010D0607F9F
:1010C00020B900202077204600F032F82179022054
:1010D000607739B1D4E902122046FFF7C6FF48B164
:1010E000012010BD2168114848612068816821F005
:1010F000180181606079A0B121682069086101222E
:1011000020686369816821F060011943816020686B
:10111000A369816821F08001194381606277002012
:1011200010BD21684FF0FF30E8E70000B71DC10493
:1011300008B500680649884208D10648016841F4AC
:1011400080510160006800F48050009008BD0000EC
:101150000030024030380240F0B590F85020012AAB
:101160002ED001EB4102012580F85050022380F877
:10117000513000EBC202254C178E168DB2F834C0E8
:10118000536A3F05203243EA064647EA4C570A2B8A
:1011900046EA070616D0092B14D0137B46EA0363F0
:1011A0000029016813D0CE69A6431E43CE610168B1
:1011B00013680B6151680A291BD0092919D01DE059
:1011C0000220F0BDD36803F07F433343E8E74E6A63
:1011D000A6431E434E62016813688B6151680A2959
:1011E00001D009290AD1D168026821F07F419162BA
:1011F00004E0D168026821F07F411162002180F88B
:10120000515080F850100846F0BD00000F0033FF29
:1012100070B5040004D094F85100002510B106E028
:10122000012070BD204684F8505000F029F80220BB
:1012300084F85100D4E900030121026822F440320D
:101240001A4302602068A368426B22F007021A4327
:1012500042632068E368026C6FF30D021A43026474
:101260002068228AA38A466B120542EA435226F47A
:1012700040131A434263656584F85110002070BD25
:1012800008B500680649884208D10648016841F45B
:1012900000010160006800F40000009008BD00003B
:1012A00000B002403038024070B5044600F090F9BA
:1012B0000546601C02D004480078044400F088F918
:1012C000401BA042FAD370BD28000020F0B587B0C3
:1012D00014216846FFF79AF91D480168002935D1A5
:1012E000012101601B48016841F0010101600068B3
:1012F00002240025694600F00100059003264FF600
:101300003F000C278DE8F100134800F02FF80D2066
:1013100069468DE8F100114800F028F848F23710CE
:1013200069468DE8F1000E4800F020F84FF6837012
:1013300069468DE8F1000B4800F018F84CF2037094
:1013400069468DE8F100084800F010F807B0F0BDDC
:101350000800002038380240001402400008024013
:101360000018024000100240000C02402DE9F84F26
:10137000DFF80CB2012403254FF00F0A00220BF115
:10138000040E00BF0B6804FA02F63340B34278D172
:101390000F7907F00307012F01D0022F1AD18768B8
:1013A0004FEA4209D1F80CC005FA09F827EA080704
:1013B0000CFA09FC4CEA070CC0F808C0476891F821
:1013C00004C0B743CCF3001C0CFA02FC4CEA070C37
:1013D000C0F804C00E79F643B6070BD0C6684FEAD2
:1013E000420C8F6805FA0CF826EA080607FA0CF793
:1013F0003743C7600E7906F00306022E12D1D608D5
:101400004FEA427800EB860600960F69D6F82090E6
:101410004FEAD8660AFA06FCB74029EA0C063743B9
:10142000009E37620F7906684FEA420C07F0030707
:1014300005FA0CF807FA0CF726EA080637430760A6
:101440004E6816F4403F1CD04E4E376847F4804734
:101450003760366822F00308970706F48046009646
:10146000494E3F0F4644B146D6F80868DFF81C8164
:101470000AFA07FC404526EA0C0603D14FF0000C9F
:1014800041E076E0DFF808C1604502D14FF0010C81
:1014900039E0DFF800C1604502D14FF0020C32E0C4
:1014A000DFF8F4C0604502D14FF0030C2BE0DFF809
:1014B000ECC0604502D14FF0040C24E0DFF8E0C03E
:1014C000604502D14FF0050C1DE0DFF8D8C0604543
:1014D00002D14FF0060C16E0DFF8CCC0604502D117
:1014E0004FF0070C0FE0DFF8C4C0604502D14FF0A9
:1014F000080C08E0DFF8B8C0604502D14FF0090CD5
:1015000001E04FF00A0C0CFA07FC4CEA060CC9F893
:1015100008C84F68DBF80060FF0226EA030600D522
:101520001E437746CBF80060D1F804C0DEF80060B7
:101530005FEA8C2C26EA030600D51E43DFF840C084
:101540003E60ACF1040C4F68DCF80060BF0326EA93
:10155000030600D51E430A4FCCF80060083FD1F8BF
:1015600004C03E685FEACC3C26EA030600D51E4371
:101570003E60521C102AFFF405AFBDE8F88F000052
:10158000083C014044380240003001400000024065
:101590000004024000080240000C0240001002401B
:1015A0000014024000180240001C024000200240CB
:1015B00000240240426921EA02030A4043EA024150
:1015C000816170470AB1816170470904FBE700003F
:1015D00001488068704700002800002070B50400B2
:1015E00011D022684CF6CC4145F25550116021686B
:1015F0000860D4E9000141602168A0688860FFF7B5
:10160000E7FF05460DE0012070BD00BFFFF7E0FFDA
:10161000401B312805D92068C068400701D003204D
:1016200070BD2068C0684007F0D12068E168026999
:101630008A4201D0016102E04AF6AA21016000203D
:1016400070BD01684AF6AA200860002070470000BB
:1016500002488168027811448160704728000020A8
:10166000032010B500F06AFA0F2000F005F800F032
:101670001BFA002010BD000010B5002201463720E3
:1016800088B000F03BFA372000F02AFA13480168CE
:1016900041F020010160006805A900F020000690DB
:1016A000684600F0C9FD00F0E7FD0D49400000224A
:1016B0000C4CB0FBF1F10C4840F2E7330460C0E998
:1016C0000332491EC0E9011201F03FF810B10120B8
:1016D00008B010BD044801F06BF8F9E7403802404B
:1016E00040420F0000140040C00500202DE9F041E9
:1016F000044690F8A00016460F4601281DD001258B
:1017000084F8A050022084F8A10006EB860000EBCC
:10171000C600342204EB80003830FEF745FF324625
:101720003946204601F060F9216800204D6284F8B6
:10173000A15084F8A000BDE8F0810220FBE77047CB
:101740002DE9F0410446006800274FF00408856B3E
:10175000466B690715D5710713D5426B22F0040259
:1017600042632068C0F83C80D4F8A40040F0010037
:10177000C4F8A40084F8A180204684F8A070FFF784
:10178000DEFFA80716D5B00714D520680222436BE8
:1017900023F0020343632068C263D4F8A40040F03E
:1017A0000200C4F8A40084F8A180204684F8A07048
:1017B000FFF7C5FF05EA06004FF00108C0070ED08D
:1017C00021684A6B22F001024A632168C1F83C801B
:1017D00084F8A180204684F8A07000F091F82807D2
:1017E00010D530070ED520680822436B23F008037C
:1017F00043632068C26384F8A180204684F8A07007
:1018000000F050F9BDE8F0812DE9F041040004D06A
:1018100094F8A100002518B107E00120BDE8F0818F
:10182000204684F8A05000F097F83448022184F84C
:10183000A110012202CC8B6923F070438B6194E8E4
:101840004A001943E3681E4354F8043D31439E693E
:101850003143996121688B6803408B602168A68AB7
:10186000A7698B683B4343EA06438B602168CB68DA
:101870000340CB602168A38B276ACE683E4346EACB
:101880000346CE6021680B6903400B612368A68C78
:10189000A76A1969394341EA0641196121684B6910
:1018A00003404B612068A38D266B4169314341EAB7
:1018B00003414161236894F8351094F83600DE6ADC
:1018C000000406F07F46DE62236840EA012094F8B7
:1018D0003460D96A31430143D9622068416B41F0D9
:1018E000060141632068816941F001018161C4F80A
:1018F000A45084F8A120002090E7000000F800F038
:10190000124910B5124A134C0B6811888B4212D140
:10191000518800F0A5F8206890F86610491C80F8FE
:10192000661002F093F9206804F0C0F8BDE810409A
:10193000002005F0E6B800F093F8002005F0E2F88A
:1019400020680168096ABDE8104008474068014006
:101950001C000020E8010020F0B5ABB004461421C3
:1019600024A8FEF753FE90216846FEF74FFE364945
:101970002068884266D1002502240820CDE9074569
:101980000090C02101226846CDE90514CDE90A2561
:1019900000F01CF908B1FFF7FAF92C48016841F092
:1019A00080610160006800F0806029902748143849
:1019B000016841F480710160016801F4807129912E
:1019C000016841F020010160016801F020012991C6
:1019D000016841F080010160016801F080012991F6
:1019E000016841F040010160006824A9032600F06D
:1019F000400029900E2740F2F76081E8F10014487A
:101A0000FFF7B4FC24A94FF4806081E8F10011488D
:101A1000FFF7ACFC24A94FF47E4081E8F1000E48AA
:101A2000FFF7A4FC24A94FF40C6081E8F1000B48F7
:101A3000FFF79CFC00220521582000F05FF8582099
:101A400000F04EF82BB0F0BD006801404438024071
:101A50000020024000140240001C02400018024016
:101A600070B590F8A020012A18D00D4D012380F800
:101A7000A030022280F8A120002450F8A02B566B41
:101A800026F001065663296050F8A01C4A6B42F00C
:101A900001024A6343700470204670BD022070BD8D
:101AA00040680140704700000C4882B0016841F076
:101AB00080510160006800F0805000900748001DD0
:101AC000016841F480410160006800220F2100F4A8
:101AD00080400090901E02B000F010B840380240E4
:101AE000002809DB410900F01F028900012001F1F3
:101AF000E0219040C1F80001704700000E4BF0B4A7
:101B00001B680D46C3F30223C3F10706042E00D958
:101B10000426191D072901D2002300E0DB1E012441
:101B200004FA06F19C40491E2940641E9940144065
:101B30002143F0BC08F0B2BC0CED00E0064900F017
:101B4000070210B54FF6FF040868044B204040EA36
:101B500002201843086010BD0CED00E00000FA05FB
:101B60001848F8B5016841F0805101600068164CD2
:101B700000F080500090206840F480302060FFF733
:101B800027FD4FF47A76054605E000BFFFF720FDFC
:101B9000401BB0420FD86068C003F7D5206840F4FE
:101BA00000302060FFF714FD054606E0FFF710FD4A
:101BB000401BB04201D90320F8BD60688003F5D511
:101BC0000020F8BD40380240007000402DE9F84F79
:101BD00004460078DFF824944FF000063746C0072B
:101BE0000ED0D9F8001021F40001C9F80010D9F87E
:101BF0000010626B1143C9F80010606B00B9012638
:101C0000FE4D2068843500030ED5E16B286820F472
:101C1000401008432860E06BB0F5801F01D010B180
:101C200002E0012600E0012720684FF4800BC0028B
:101C30000CD5216C286820F4400008432860206CF3
:101C4000584501D1012601E000B901272068C101F2
:101C500000D50126800666D5E8483830016841F095
:101C6000805101600068DFF898A300F08050009078
:101C7000DAF8001041F48071CAF80010FFF7A8FCF0
:101C8000804605E0FFF7A4FCA0EB080064287DD89F
:101C9000DAF80000C005F5D5DFF8608308F16808C0
:101CA000D8F8000010F440702AD0218E01F4407161
:101CB000814225D0D8F80010D8F8002021F44071D6
:101CC00042F48032C8F80020D8F8002022F4803294
:101CD000C8F80020C8F80010D8F80000C0070FD0DE
:101CE000FFF776FC824607E0FFF772FCA0EB0A01E3
:101CF00041F288308142CAD8D8F800008007F3D575
:101D0000206BC0F3012103297ED0D9F8001021F403
:101D1000F811C9F80010228ED8F80010C2F30B0297
:101D20001143C8F800102078C00607D5286820F0B5
:101D3000807028602868A16B084328602188AF481C
:101D40008830490405D5626E016821F440311143A1
:101D500001602188090405D5A26E016821F44021A3
:101D6000114301602168C90305D5E26E016821F4C1
:101D70004011114301602168890305D5226F016874
:101D800021F4400111430160217800E034E149066B
:101D900005D5626C016821F00301114301602178CF
:101DA000090605D5A26C016821F00C011143016000
:101DB0002188C90505D5E26C016821F03001114385
:101DC00001602188890505D5226D016821F0C001D7
:101DD000114301602188490505D5626D016821F430
:101DE0004071114301602188090505D5A26D016884
:101DF00021F44061114301602188C90407D5E26DD7
:101E0000016821F4405100E068E01143016021883D
:101E1000890405D5226E016821F440411143016017
:101E20002168490205D5A26F016821F08061114344
:101E3000016021684FF0006A890209D5E26F0168EC
:101E400021F0006111430160E16F514500D101278C
:101E500021680A0700D50127490305D5626F01688B
:101E600021F04071114301602168090206D5D4F8C0
:101E70008020016821F080511143016021684901EF
:101E800006D5D4F88420016821F000511143016087
:101E90002068000106D5D4F88810286820F000706A
:101EA000084328602068C00006D5D4F88C10286844
:101EB00020F0806008432860DFF84891012E02D0AE
:101EC000206880017ED5D9F800004E4620F0806061
:101ED000C9F80000FFF77CFB80460FE04A4AD9F8BA
:101EE0000030104023F4F8120243C9F8002012E732
:101EF000FFF76EFBA0EB080064287DD83068000176
:101F0000F6D421783D487C30C90712D0616B81B985
:101F1000237A62680168D0F800C09201C1F30141E0
:101F200042EA0142CCF3036142EA016141EA0371F2
:101F3000016021680A0303D5E26BB2F5801F04D06B
:101F4000C9021AD5216C594517D16368016894F804
:101F50000CC002689B01C1F3014143EA0141C2F395
:101F6000027241EA0C6141EA027101602968626A09
:101F700021F01F01521E114329602168C90110D5AB
:101F8000238A62680168D0F800C09201C1F303613E
:101F900042EA034242EA0162CCF3027142EA017171
:101FA0000160216889010CD56168228A237B94F83D
:101FB00008C0890141EA024141EA036141EA0C712A
:101FC000016000E011E03168B04641F080613160AD
:101FD000FFF7FEFA064604E0FFF7FAFA801B6428D2
:101FE0000AD8D8F800000001F6D5E7B3D9F8000008
:101FF0004E4620F0805009E07BE0000008380240A7
:102000000070004000380240FFFCFF0FC9F80000DC
:10201000FFF7DEFA074604E0FFF7DAFAC01B642890
:1020200067D83068C0438000F6D5216835480A0378
:1020300001D5E26B1AB1C9021DD5216CD9B963690A
:102040000168277E02689B01C1F3014143EA014315
:10205000C2F3027143EA076242EA01710160296832
:102060006FF0FF0300E04BE0A26A21F4F85103EBAC
:102070000222114329602168890212D5E16F51457E
:102080000FD1238C6269016807689201C1F3036173
:1020900042EA034242EA0162C7F3027142EA017175
:1020A00001602178090716D561690268D0F800C07F
:1020B0008B01277FC2F30362CCF3014143EA014164
:1020C00041EA026141EA077101602868E16A20F48F
:1020D000403008432860306840F080503060FFF79F
:1020E00077FA044608E000BFFFF772FA001B642885
:1020F00002D90320BDE8F88F3068C0438000F3D4D4
:102100000020F7E7883802402DE9F04705000F4628
:1021100063D0444E306800F00F00B84209D23068F6
:1021200020F00F0038433060306800F00F00B842F4
:1021300053D128683C4C810712D5400703D520684D
:1021400040F4E05020602878000703D5206840F470
:1021500060402060A968206820F0F00008432060FB
:102160002878C0072AD0304968680839012810D07B
:102170000968022810D0890700292EDA216821F089
:10218000030101432160FFF723FA804641F28839B9
:102190000DE009688903EFE78901EDE7FFF718FA19
:1021A000A0EB0801494502D90320BDE8F087686823
:1021B000216801F00C01B1EB800FEFD1306800F025
:1021C0000F00B8420BD9306820F00F003843306060
:1021D000306800F00F00B84201D00120E5E7287810
:1021E000400705D5E968206820F4E05008432060E6
:1021F0002878000706D52869216821F4604141EA62
:10220000C000206000F048F82168084AC1F30311BB
:10221000515CC8400649086006480068FFF72CFA80
:102220000020C2E7003C02400838024088C0000895
:10223000340000202C0000200D4A0F2330B503602D
:102240004FF4E0540B4B156805F003054560156825
:1022500005F0F0058560156805F4E055C560126865
:1022600004EAD2020261186800F00F00086030BD75
:1022700008380240003C02400449054809680068EB
:10228000044AC1F38221515CC840704708380240BB
:102290003400002098C00008154910B51548096899
:1022A00011F00C0213D01449042A0FD0082A0ED1C1
:1022B0000F4C241F2268236802F03F025B0207D5FF
:1022C0002068C0F38810A0FB010106E0084610BD9D
:1022D0002168C1F38811A1FB00010023FEF786F8F5
:1022E0002168C1F30141491C4900B0FBF1F010BD68
:1022F000083802400024F40040787D012DE9F84FB1
:1023000004004FF000076ED02078DFF87CA3AAF11C
:102310000408C007A8F104054CD0DAF800105046B4
:10232000C1F38101012908D00068C0F381000228AF
:102330000AD1D8F80000400206D52868800339D5B4
:1023400060680028DFD035E06068B0F5803F0BD0D2
:1023500010B1B0F5A02F11D0286820F4803028608B
:10236000286820F4802002E0286840F4803028604B
:10237000606890B1FFF72CF906460AE0286840F43F
:1023800080202860F0E700BFFFF722F9801B642857
:1023900072D828688003F7D50CE0FFF719F90646D4
:1023A00005E000BFFFF714F9801B6428F0D8286807
:1023B0008003F7D42078800742D5DAF80010504621
:1023C00011F00C0F08D00068C0F3810002280BD177
:1023D000D8F80000400207D42868800718D5E068C4
:1023E000012800D114E04AE1E0680028286817D0ED
:1023F00040F001002860FFF7EBF8064605E000BF5B
:10240000FFF7E6F8801B0228C2D828688007F7D5B6
:102410002069296821F0F80141EAC00028600FE036
:1024200020F001002860FFF7D3F8064605E000BF62
:10243000FFF7CEF8801B02281ED828688007F7D443
:102440002078000729D5904861696C3000298146C1
:10245000016812D041F001010160FFF7B9F80646AA
:1024600005E000BFFFF7B4F8801B022804D8D9F8B4
:1024700000008007F6D510E089E021F0010101603D
:10248000FFF7A6F8064604E0FFF7A2F8801B022833
:102490007DD8D9F800008007F6D4207840076BD5A6
:1024A000DFF8E49109F13809D9F80000C0000BD435
:1024B000D9F8001041F08051C9F80010D9F8000097
:1024C000012700F08050009070480168C90512D4BF
:1024D0000168834641F480710160FFF779F8064690
:1024E00005E000BFFFF774F8801B64284FD8DBF8C5
:1024F0000000C005F6D5644EA068683601280AD0F1
:1025000008B1052811D0306820F001003060306833
:1025100020F0040002E0306840F001003060A06864
:10252000A0B1FFF755F883460CE0306840F0040096
:102530003060F0E7FFF74CF8A0EB0B0141F2883078
:10254000814268D830688007F4D50EE0FFF740F884
:10255000834607E0FFF73CF8A0EB0B0141F288301F
:10256000814258D830688007F4D42FB1D9F80010D0
:1025700021F08051C9F80010A069E0B3DAF800102A
:10258000C1F3810102294DD00228286800E042E011
:1025900020F08070286003D0FFF71AF804463DE071
:1025A000FFF716F8064604E0FFF712F8801B022832
:1025B00031D828688001F7D4D4E90921DFF8D0C0E8
:1025C000D4E9070694F830304F0894F82C103043C3
:1025D0000CEB074444EA8212104340EA016040EAEF
:1025E0000370C8F80000286840F080702860FEF78B
:1025F000EFFF044605E044E0FEF7EAFF001B022877
:1026000009D828688001F7D53BE000BFFEF7E0FF5E
:10261000001B022802D90320BDE8F88F286880013A
:10262000F4D42EE00128D8F8000028D0E16900F4A5
:1026300080028A4223D1216A00F03F028A421ED1E1
:10264000626A47F6C0710140B1EB821F17D1A16ADF
:102650004FF0FF3200F4403302EB5101B3EB014F76
:102660000DD194F82C1000F07062B2EB016F06D11E
:1026700094F8301000F0E040B0EB017F01D0012071
:10268000CAE70020C8E70000083802400070004098
:102690000000FFFF70B504000D4603D094F82C0035
:1026A00010B107E0012070BD002084F82D00204605
:1026B00000F011F8022084F82C002068211DFEF79C
:1026C00068FBD4E900022946FEF7B4FB012084F838
:1026D0002C00002070BDFEF7F9BD10B5044690F83F
:1026E0002C00022804D094F82C00012801D00120ED
:1026F00010BD022084F82C002068FEF77FFB01202B
:1027000084F82C00002010BD70B5044690F82C0011
:102710000D46022804D0012803D0052801D001204D
:1027200070BD022084F82C002068FEF770FB28683A
:10273000022805D05FF0010084F82C00002070BD55
:102740000520F9E770477047704710B5040003D0C3
:1027500094F83D0010B107E0012010BD002084F87E
:102760003C00204600F022F8022084F83D0020685A
:10277000211D00F061FC012084F8480084F83E002F
:1027800084F83F0084F8400084F8410084F8420057
:1027900084F8430084F8440084F8450084F8460037
:1027A00084F8470084F83D00002010BD7047000009
:1027B00090F83D10012901D001207047174A0221ED
:1027C00080F83D100168CB6843F00103CB600068DE
:1027D000904214D0B0F1804F11D0114988420ED0F0
:1027E000104988420BD01049884208D00F498842CE
:1027F00005D00F49884202D00E49884207D181682E
:102800000D4A1140062906D0B1F5803F03D001687A
:1028100041F001010160002070470000000001400C
:102820000004004000080040000C0040000401408B
:10283000004001400018004007000100704770B5DB
:102840000446006800250169C943890715D4C16899
:10285000C943890711D4EA1E02610121217720684A
:1028600080698007204602D0FFF7E8FF04E000F00F
:10287000A7F8204600F0A5F8257720680169C9432C
:10288000490717D4C168C943490713D402216FF01F
:102890000402026121772068806910F4407F20469D
:1028A00002D0FFF7CBFF04E000F08AF8204600F0EA
:1028B00088F8257720680169C943090716D4C168DB
:1028C000C943090712D404216FF00802026121777D
:1028D0002068C0698007204602D0FFF7AFFF04E000
:1028E00000F06EF8204600F06CF82577206801694A
:1028F000C943C90617D4C168C943C90613D40821FE
:102900006FF01002026121772068C06910F4407FE7
:10291000204602D0FFF792FF04E000F051F8204675
:1029200000F04FF8257720680169C943C90708D12D
:10293000C168C943C90704D1891E0161204600F05E
:1029400041F820680169C943090609D4C168C9432F
:10295000090605D46FF0800101612046FFF7F3FE00
:1029600020680169C943C90509D4C168C94309067A
:1029700005D46FF4807101612046FFF7E3FE206803
:102980000169C943490609D4C168C943490605D448
:102990006FF040010161204600F01EF820680169D7
:1029A000C94389060BD4C168C943890607D46FF0AF
:1029B000200101612046BDE87040FFF7C5BE70BD33
:1029C0007047704700680349884201D1FEF740BE56
:1029D00070470000001400407047FEE70148FEF712
:1029E000AFBE0000180500202DE9FE4F81460068AB
:1029F000882493468D888C2204EBCB178A46C368C3
:102A00009421BE46C459C3F30B432B4404F47044D1
:102A10001F04019702EBCB1240F80E4001EBCB13E1
:102A2000DAF800709C214FF0AC0C01EBCB1440F2B3
:102A3000077102910CEBCB11D9F800C0982500204A
:102A4000CDF800C0A02605EBCB15DCF80CC006EBDA
:102A5000CB16CCF30B4C0CF1010C07EB0C08DDF89A
:102A600000C0019F48EA07084CF80E80D9F80070B2
:102A7000BAF80CC0B846FF68C7F30A0767444FEAC4
:102A8000074E58F8027007F4704C48F802C0D9F8A5
:102A900000C0DAF80870DCF80C80C8F30A0808F106
:102AA0000108B84448EA0E084CF80280D9F8002022
:102AB000D75827F00707D750D9F80070DAF8102058
:102AC000FA509AF831209AF818304FEA022C9AF806
:102AD0003220120442EA0362D9F800301F5918511B
:102AE0009AF8303043EA0C031343D9F8002013510D
:102AF000D9F80020535923F0FF035351D9F800208F
:102B0000DAF814305351D9F800209359029CA343AA
:102B10009351D9F80030DAE9072422439A51D9F8C1
:102B2000002053585050D9F80020DAF824005050B3
:102B3000DAF81000C8B301283AD004283AD00228A5
:102B400038D0032836D0072834D00120D9F80030F7
:102B5000B02505EBCB11B42284245D5802EBCB12D7
:102B600005F0E0255D50DAE9003504EBCB14EB1AF3
:102B7000BAF8285043434543D9F80000DB1C43EA28
:102B800005434350D9F8000081586FF30A01815082
:102B9000D9F80000DAF82C108150D9F8000001595A
:102BA00041F001010151BDE8FE8FFFE70420CDE7B0
:102BB0000320CBE70220C9E70A480021084B012285
:102BC00010B5036001714171416102628161FEF7DC
:102BD00073FA002803D0BDE81040FEF7D8B810BD46
:102BE0000030024058040020104802220E4B002101
:102BF00010B50360C0E90112C160C0E90E120164A2
:102C000041648164C164FEF703FB08B1FEF7BFF8BD
:102C100006480121FEF7A0FA002803D0BDE81040C5
:102C2000FEF7B5B810BD000000B002407C040020E3
:102C3000F0B587B01C216846FDF7E8FC1548002276
:102C40000823134D01264FF0400C0624C0E9005222
:102C5000C0E90263022110270761A501C0F814C072
:102C6000C0E906528E020F038762C0E908628DE850
:102C70001A0004250394CDE9045106916946FFF733
:102C800009FD002801D0FEF782F807B0F0BD000072
:102C9000400100A0D404002010B58EB00B491C22C6
:102CA0006846FDF781FC0021684607F09BFD084C53
:102CB0001C2206491C31206007A8FDF775FC002185
:102CC00007A807F08FFD60600EB010BD40C000087F
:102CD00000000020F0B587B014216846FDF796FC8F
:102CE0003248016841F480710160016801F480712B
:102CF0000591016841F020010160016801F02001A7
:102D00000591016841F080010160016801F08001D6
:102D10000591016841F004010160016801F00401BE
:102D20000591016841F002010160016801F00201B2
:102D30000591016841F040010160016801F0400126
:102D40000591016841F010010160016801F0100176
:102D50000591016841F008010160016801F0080176
:102D60000591016841F00101016000680022104FE7
:102D7000222100F0010005903846FEF723FC0024D4
:102D800069460225009501263846CDE90164039481
:102D9000FEF7ECFA20206946CDE90006CDE90245B0
:102DA0003846FEF7E3FA07B0F0BD000030380240C5
:102DB000000402400A484FF47A61084B032210B520
:102DC0000360C160C0E90121FEF708FC002803D0C0
:102DD000BDE81040FDF7DBBF10BD00000030004033
:102DE00008050020F0B58DB034216846FDF70EFCD3
:102DF00025480024234B1321022540F29F469F22A1
:102E000040F26E2703601623446040F23F5C84600A
:102E100040F27A2E8561C460C0E9044100F11C01D2
:102E200081E8CC5080F8344080F8354080F8364056
:102E3000FEF7EAFC08B1FDF7AAFF4FF480600495A5
:102E40004FF4167107AF0523CE06CDE90040CDE95A
:102E5000024187E84900CDE90A01FF220A48CDE98D
:102E600005248DF8304000228DF8314069468DF8F8
:102E70003240FEF73BFC002801D0FDF788FF0DB083
:102E8000F0BD00000068014018050020F0B585B0D5
:102E90004FF6FF7700241B4801253A4610268DE89F
:102EA0007000CDE9035401A9FFF72EFC0120FEF7C5
:102EB000FBF902203A46CDE90106124801A9CDE905
:102EC0000354FFF721FC08213A460320CDE90314FF
:102ED000CDE901060B4801A9FFF716FC04213A468B
:102EE0004FF40C708DE84300CDE90350054801A96B
:102EF000FFF70AFC03484FF41F71FFF7EEFB05B024
:102F0000F0BD0000D404002007F076BFFEE7FEE726
:102F10004FF4FA6007F0DFFB094C01222021204624
:102F2000FEF750FB4FF4FA7520460221FEF742FBF4
:102F30000448FEF786FB284607F0CDFBF4E70000C7
:102F40000004024008050020502010B572B680F33E
:102F50001188BFF34F8FBFF36F8F62B608F088FD03
:102F600018B104494FF080500860002080F31188A8
:102F700010BD000004ED00E070B594B03421684647
:102F8000FDF744FB14210DA8FDF740FB2148016823
:102F900041F080510160006800F0805012901E489E
:102FA000016841F44041016000680224012200F4FC
:102FB00040401290CDE905244FF4D876E103CDE9E5
:102FC000096409200B9419250C94CDE900018B01AB
:102FD0006846CDE90735FFF791F908B172B6FEE70B
:102FE000FEF7BEFD08B172B6FEE70FAD00214FF44B
:102FF000A0524FF4805385E80E000F20CDE90D0458
:1030000007210DA8FFF780F8002801D072B6FEE76F
:1030100014B070BD403802400070004002480168A2
:1030200041F470010160704788ED00E00148FFF74E
:1030300006BC0000C0050020F0B5274B4FF0804EC5
:10304000264D02689842264E264F274C09D07045DF
:1030500007D0A84205D0B04203D0B84201D0A04268
:1030600005D1D1F804C022F070024CEA0202984265
:103070001BD0704519D0A84217D0B04215D0B84225
:1030800013D0A04211D0194DA8420ED0184DA8421D
:103090000BD0184DA84208D0174DA84205D0174DA7
:1030A000A84202D0164DA84203D1CD6822F4407246
:1030B0002A434D6922F080022A43026098428A68BE
:1030C000C2620A68826201D0A04201D1096901632B
:1030D00001214161F0BD00000000014000040040FA
:1030E00000080040000C0040000401400040014086
:1030F000004401400048014000180040001C00400E
:103100000020004007F0B4BEFEE7002809DB4109BB
:1031100000F01F028900012001F1E0219040C1F878
:103120000001704700280DDB410900F01F028900F3
:10313000012001F1E0219040C1F88001BFF34F8FE1
:10314000BFF36F8F7047090700284FEA116104DB56
:1031500000F1E02080F80014704700F00F0000F14B
:10316000E02080F8141D7047154810B58CB0007829
:10317000C00721D1124807F0B4F9E8B1124A002083
:103180003F210791012309900A9004240D49CDE9BC
:10319000040208900122069103900090CDE90143BA
:1031A0000A490A230A4802F051F90A4A0A49FDF776
:1031B0009FF90348AFF300800CB0054810BD000034
:1031C00098000020D40F0208EC0F0208340F020808
:1031D000108C00200000000891540008154810B51C
:1031E0008CB00078C00722D1124807F07AF9F0B10C
:1031F0000020114A0DF10C0C104B3F2107910121C9
:10320000089009900424069209220A908CE80B0089
:1032100000901423CDE9014109490A4802F016F94A
:10322000094A0A49FDF764F90248AFF300800CB07F
:10323000044810BD9C000020D80F0208F00F0208BF
:10324000440F0208388C0020000000089154000848
:10325000154810B58CB00078C00721D1124807F08E
:1032600040F9E8B1124A00203F210791012309905B
:103270000A9004240D49CDE9040208900122069128
:1032800003900090CDE901430A4928230A4802F03F
:10329000DDF80A4A0A49FDF72BF90348AFF300802D
:1032A0000CB0054810BD0000A0000020E80F020887
:1032B000F40F0208C40F0208608C00200000000810
:1032C000915400080E49002070B50860BFF34F8F7D
:1032D000081F43F6FF7300680A4DC0F34E31C0F378
:1032E000C90203EA4114104644EA80762E60401E6B
:1032F000FAD2491EF5D2BFF34F8FBFF36F8F70BD67
:1033000084ED00E074EF00E000F0ACB8704700001E
:1033100010B500F0A9F80149016010BD24C10008F2
:10332000084910B5016000F5F07006F0F5F83C387A
:1033300006F0F2F83C3806F0EFF8A0F5B470024958
:10334000016010BD3CC2000818C7000870B50446F3
:1033500000F00CFA0E480F490088098848434FF0E6
:1033600040414200206801EB4203A2F18042D0F8C4
:1033700084502046A847012084F8680084F849005A
:103380002021BDE8704002460348FEF71BB900004B
:10339000E0010020DE0100200004024000F008BA35
:1033A00000F010BA00F01CBA00F024BA00F02CBAF9
:1033B00000F036BA00F054BA7047000000F51A72F7
:1033C00010B500F12C03836000F5147400F11401B2
:1033D000C0E90342114AC0E90021084602F0AAF9F7
:1033E0000F4940F8181B02F0A5F90E49016000F5DD
:1033F000097002F09FF90C4940F8141B00F099FA8B
:10340000A0F5197000F519710246081D00F068F961
:10341000A0F51A7400F028FA204610BD28C2000852
:1034200050CC00081CCC000884CC0008094910B519
:10343000016000F51A7000F075FA183802F082F990
:10344000A0F5097002F07EF9183802F07BF9143803
:1034500010BD000028C2000800487047A0C0000846
:1034600002207047704700002DE9F04F8FB003F045
:103470004BFF7E490025C56340F8401B02F03AFA35
:103480002C3002F037FA2C3003F0BEFC343003F05D
:10349000BBFC343003F0B8FC343003F0B5FC3430FE
:1034A00006F01EF83C3006F01BF83C3006F018F829
:1034B000A0F5F07400224FF480681146A0F5D0709A
:1034C00043464FF416768246009603F08FFF0022A3
:1034D00057461146104603F0B5FB0022B86204F1CE
:1034E0006C00434611468146009603F07FFF302270
:1034F0004E46C720114603F0A5FBB0624FF482721E
:1035000004F1980040F29D11049003F0E2FF0120C5
:10351000ADF80800049802AA01A9ADF8045003F020
:1035200056FC40F227367E22314604F1CC0003904F
:1035300003F0CFFF0120ADF80400039801AA02A90F
:10354000ADF8085003F043FCD722314604F58070F3
:10355000089003F0BEFF0120ADF80400089801AA0E
:1035600002A9ADF8085003F032FC04F59A70314618
:103570004FF49672834603F0ACFF0120ADF80400CF
:1035800001AA584602A9ADF8085003F020FC04F542
:10359000B47040F243319022804603F09AFF00223B
:1035A00046461146104603F04DFB306300210BA840
:1035B000A8F8345006F014F90146404605F04DFFD6
:1035C00004F5D27040F283319022064603F081FF69
:1035D00000221146104603F035FB306301210BA891
:1035E000B58606F0FDF80146304605F036FF04F5D5
:1035F000F07040F24D31EB22074603F06AFF0022E3
:103600001146104603F01EFB386302210BA8BD864D
:1036100006F0E6F80146384605F01FFF5146204601
:1036200003F0FCFC4946204603F0F8FC04992046D0
:1036300003F0F4FC0399204603F0F0FC08992046BF
:1036400003F0ECFC5946204603F0E8FC41462046D6
:1036500003F0E4FC3146204603F0E0FC3946204606
:1036600003F0DCFC0FB02046BDE8F08F3CC2000840
:10367000094910B5016000F5F07005F04DFF3C38C8
:1036800005F04AFF3C3805F047FFBDE81040A0F5C3
:10369000B47003F0D1BA00003CC200087047704714
:1036A000044A0023836002F11803C160C0E90023CB
:1036B0007047000070C20008704703207047000088
:1036C00000487047888C002010B50446D0F854019B
:1036D00000F02EF92046BDE8104000F011BE0000B9
:1036E00010B500F0E1F80149016010BD98C2000872
:1036F000154838B515460C46D0F81C0208BB012207
:1037000069460220FDF762FC9DF80000000718D012
:10371000042269460320FDF759FC9DF800109DF82E
:10372000010001F00F0100EB012028609DF802105C
:103730009DF8030001F00F0100EB01202060012043
:1037400038BD002038BD000000804342FDF7CABBF1
:103750007047000003480068C00301D5FFF7B2BD01
:103760007047000014ED00E002F0D8B870B50446D0
:1037700002F0E0F800F0A8FA01462068026E204648
:10378000904720680023044AD0F884502046110452
:10379000AC46BDE87040604700C012C003480068F6
:1037A000C00301D5FFF78EBD7047000014ED00E0A7
:1037B0005A2010B5FFF7A9FCBDE810405820FFF7CC
:1037C000A4BC000010B502F06BF904480068C00307
:1037D00003D5BDE81040FFF775BD10BD14ED00E046
:1037E0005A2010B5FFF79EFCBDE810405820FFF7A7
:1037F00099BC000003480122024B883B01601A601B
:1038000070470000AC68014009215A2010B5FFF74D
:103810009AFC0921BDE810405820FFF794BC000035
:103820000C4810B50C4B011D00680A4A094C28329F
:103830003434C0F30A00401E80B218800968C1F316
:103840000A01491E59802060106840F00100106094
:1038500010BD00000C6801401C00002002F01DBCDF
:1038600002F02DBC70470000054A00F5A071D2E9B6
:103870000032CA60C1E90103C0F83C117047000082
:10388000C8C0000808B5D0F85411054B009100F5E8
:103890009C71D0F85021034808F0D0FA08BD000010
:1038A0009C0100209801002070B515460E4601F0DD
:1038B00073F80446154816480021174AC4F8381111
:1038C000C4F83C1104601348206004F5A070C0E9FE
:1038D0000021124AD2E90212C0E90212C4F8505182
:1038E0000F4DC4F85461286801688A680021904728
:1038F000002003F0BFF9296891F8760008B1C86C80
:1039000000B9886804F0A7FE204670BD84C4000892
:10391000A001002008C30008B0C70008C8C0000804
:10392000E8010020014901607047000008C3000859
:1039300070470021016070470E4808B5016841F4E6
:1039400000010160006800F4000000900948203880
:10395000016841F400010160016821F40001016087
:10396000002205215A20FEF7C9F8BDE808405A2078
:10397000FEF7B6B83038024040F2EF307047000032
:103980002DE9F0410C46497F074600F0E8F8A17F99
:103990000646384600F0E3F8A17F0546384600F0B9
:1039A000F2F846490746628BA38A4548DFF814C1FE
:1039B000D21A0A64628BA38AD21A8A61228BA38AE2
:1039C000D21A0A614F6362694FEA32424A6422693D
:1039D000CA636268CA602268802A27D006DC042A8B
:1039E0005DD0202A5BD0402A06D158E0B2F5807F16
:1039F00010D0B2F5007F10D0207F46EA006040F47E
:103A00000030C861607FA27F904253D0C1F800C0EF
:103A1000BDE8F081227F2C4B02E02B4B227F5B1E06
:103A200003EB0262CA61E2680A623EE0A268131D0B
:103A3000CB62237F46EA036343F40033CB614D62DC
:103A400023694B616FF0FF0613784FF6107513F082
:103A5000FF074FF0010303D0012F08D0FCF73DFD15
:103A60005488CA69AA4306EB042422430BE0247F4E
:103A7000FF2C00D100235488CA69AA4306EB042412
:103A8000224342F01002CA61CA6942F02002CA61B0
:103A9000CA699206FCD410228A604BB9B6E7227F2D
:103AA00046EA026242F40032CA614D6222694A610A
:103AB0000860ADE740F20120FAE7000000B00240E4
:103AC00001020200010201000A00020070B50C466A
:103AD000897F00F058F81C49486362694FEA324216
:103AE0004A642269CA63628BA38AD21A0A64226872
:103AF000082A13D00022C8610A614FF47842E068B6
:103B00004FF4FC6302EA102203EA50131A43C0F395
:103B1000C40002430D488A63086070BD638BA58AA8
:103B20000B4A5B1B8B61638BA58A5B1B0B61486235
:103B3000207F02EB0060C861E068086205482269E6
:103B40004A612269CA60E7E700B00240010203004F
:103B500009000100010202000168896A084700208B
:103B60000C2910B50DD2DFE801F00806070C0C0C8B
:103B70000C0A0A0A0A0A012010BD022010BD052005
:103B800010BDFCF7AAFC00200B2910B50BD2DFE812
:103B900001F00806070A0A0A0A06060606000120BE
:103BA00010BD022010BDFCF798FC000010B500F11C
:103BB0000C014160002202720B46427207496022EA
:103BC000016000F12001184601F004FE0449602361
:103BD0002022143006F073FC203810BD4CC30008BE
:103BE000C96D0008064A054901604FF08061C2F8BE
:103BF0008011BFF34F8FBFF36F8F70474CC3000826
:103C000008E000E030B5044C039D04600171C280FF
:103C10000381458130BD00009CC300080948012193
:103C200010B506F064FD084C206038B1054801214C
:103C3000083006F05CFD0028606001D1FCF74DFC07
:103C400010BD000078C00008200000200148406836
:103C500006F06CBD2000002010B5064C0021606805
:103C600006F08CFD60684FF0FF31BDE8104006F0B3
:103C700085BD0000200000200148006806F056BD08
:103C80002000002002484FF0FF31006806F076BDAA
:103C90002000002002480021006806F06FBD0000EF
:103CA000200000200148006806F040BD20000020F0
:103CB00010B500F009F80168096BBDE8104008472D
:103CC00041607047704770470148C0687047000006
:103CD0009401002003484068002802D00268926ADC
:103CE00010477047940100202DE9F74F84B08146BA
:103CF00005A805F0E0FE00287ED109F1A805B9F875
:103D0000E8400AE0A0B205EBC00105A805F0DFFE1F
:103D100018B1A1B2284608F024F9641EF2D5B9F80A
:103D2000E8604FF0000AD046761E66D4B0B205A90E
:103D300005EBC004204605F0EFFE00287AD0BDF95F
:103D40001400B4F90010884232DB05A805F0A9FE82
:103D50000746204605F0A5FE874229DCBDF916007E
:103D6000B4F90210884212DB204605F09FFEBDF92F
:103D70001620BDF81A10801A00B2091A09B2ADF85F
:103D80001A10002938DD1044ADF816004DE005A8E2
:103D900005F08CFE0746204605F088FE874207DCCA
:103DA0006088BDF81610401A00B2ADF81A003AE06B
:103DB000BDF91600B4F90210884239DB05A805F0F8
:103DC00075FE0746204605F071FE874230DCBDF9DE
:103DD0001400B4F90010884215DB204605F061FE9E
:103DE000BDF91420BDF81810801A00B2091A09B2E2
:103DF000ADF81810002901E080E098E07EDD104465
:103E0000ADF8140011E005A805F04BFE074620466A
:103E100005F047FE87420BDC2088BDF81410401ADD
:103E200000B2ADF81800002868DD4FF0010801E08D
:103E30004FF0010A761E7FF579AFB8F1000F7FF4DD
:103E40006EAFBAF1000F72D0B9F8E8604FF0000819
:103E5000761E6CD4B0B205A905EBC004204605F06F
:103E60005BFE58B3BDF91400B4F90010884226DC9B
:103E700005A805F016FE0746204605F012FE87420B
:103E80001DDBBDF91600B4F90210884205A808DC54
:103E900005F00CFE6188401A01446180E188081A2F
:103EA0000BE005F003FE0746204605F0FFFD8742C4
:103EB00005DBBDF816006188401AE0802FE0BDF9EF
:103EC0001600B4F90210884227DC05A805F0EEFDC3
:103ED0000746204605F0EAFD87421EDBBDF91400C7
:103EE000B4F90010884205A809DC05F0DAFD218844
:103EF000401A01442180A188081A0CE070E105F005
:103F0000D0FD0746204605F0CCFD874205DBBDF815
:103F100014002188401AA08001E04FF00108761EAD
:103F200098D5B8F1000F8ED0B9F8E8604CE14EE1B9
:103F3000B0B205EBC00405A8214605F0C8FD18B1D4
:103F4000B1B2284608F00DF805A9204605F0E4FDB9
:103F50000028EBD0BDF91400B4F900108842BDF977
:103F60001600B4F902107DDD884233DDBDF816007D
:103F70006188401A21880FFA80F8BDF81400401AB1
:103F800006B205A805F08DFD0746204605F089FD1F
:103F9000391A05A801FB08FA05F088FD07462046F6
:103FA00005F084FD381A7043504508DCA4F80680FB
:103FB0002088ADF81400BDF818003044D4E0A68085
:103FC000BDF81A1001EB0800ADF81A006088ADF8D2
:103FD000160094E605A805F064FD0746204605F0A6
:103FE00060FD21888742BDF81400A0EB01000FFAA4
:103FF00080F8204625DD05F059FD064605A805F0A8
:1040000055FD301ABDF9161006B2B4F90200411A76
:1040100005A801FB08FA05F044FD0746204605F017
:1040200040FD381A7043824508DC05A805F03EFDC6
:104030006080E6802088ADF8140091E0A4F8048048
:104040005EE005F02EFD074605A805F02AFD381AAA
:1040500007B2B9F8E80007280EDAD4F800B0D4F8AF
:1040600004A000E01CE005A805F01BFD52462080DE
:10407000A78068F30F02A3E0B8450EDCBDF8181066
:104080002088ADF8140001EB0800ADF8180005A871
:1040900005F007FD2080A78031E6A4F8048026E023
:1040A000884231DA204605F0FCFC064605A805F0FA
:1040B000F8FC301A07B2204605F0F8FC064605A8C1
:1040C00005F0F4FC301ABDF9161006B2B4F902007E
:1040D000BDF91420411AB4F90000801A79437043E5
:1040E000814208DC05A8E68005F0E0FC6080BDF8B0
:1040F0001800384438E005A8A78005F0D2FC2080DD
:10410000BDF81A00304484E005A805F0CAFC074653
:10411000204605F0C6FC874233DA204605F0C1FC94
:10412000064605A805F0BDFC301A61880FFA80F834
:10413000BDF81600401ABDF9141006B2B4F900001B
:10414000411A05A801FB06FA05F0B0FC0746204617
:1041500005F0ACFC381A00FB08F0504507DCE6809F
:10416000BDF8181001EB0800ADF81800C7E505A868
:1041700005F097FC2080A4F804806088ADF8160054
:10418000BEE7BDF816006188401A0FFA80F8204695
:1041900005F08CFC074605A805F088FC381A07B224
:1041A000B9F8E80007281EDAD4F800B005A8D4F85A
:1041B00004A0E78005F07AFC5246608068F31F4255
:1041C0005946284607F0E3FE761E7FF5B1AEB9F8F2
:1041D000E860082E20D2DDE90512284607F0D7FE58
:1041E00007B0BDE8F08FB8450EDCBDF81A10608846
:1041F000ADF8160001EB0800ADF81A0005A805F0AF
:1042000055FC6080E7807AE5A4F80680BDF81A00C6
:104210003844ADF81A0072E500274FF0FF3A761ED9
:104220006FF0004B42D4B0B2741E05EBC008B8F872
:104230000410B8F8060011FB00F002902EE0002CEC
:1042400003DBA0B205EBC00100E005A98888CA889D
:1042500010FB02F00390D8F800200092D8F8040078
:104260000190684602F050FCBDF80400BDF806104D
:1042700010FB01F1DDE902201044CA17081A01EB16
:104280005271B0EBE10F02DA3746A2460BE0584517
:1042900003DA3746A24630B18346641EB4F1FF3FCD
:1042A000CDDA761EBFD5BAF1000F06DAB8B205EB4B
:1042B000C00105A802F028FC12E01FFA8AF005EB05
:1042C000C004B8B2214605EBC000064602F01CFC53
:1042D00005982060069860603168059170680690C6
:1042E000B9B2284607F03DFE09E5000003484068E2
:1042F000002802D00268D26910477047940100205C
:104300002DE9F041374D0446A86808B1017A19B18A
:1043100094F8351131B114E0002184F835110168A9
:1043200089685AE068B1007A58B1686810B10168CC
:1043300009698847A8680168C9688847012084F826
:10434000350100260BE0A01990F8880030B1B1B219
:10435000201D50F821000168C96C8847761CB4F80C
:104360008400B042EFDC0022104613E0211891F8DF
:10437000883073B190420BD086B2231D53F826705B
:1043800096B243F82670A31891F8881083F8881025
:10439000521C401CB4F884108142E7DC14E0581E23
:1043A00080B2211D834207D8FCF797F801EB800308
:1043B0005B6841F82030401CB1F880308342F5DC66
:1043C00098B2401EA1F88000B4F884309342E6DC35
:1043D0006868002804D00168496ABDE8F0410847D0
:1043E000BDE8F0819401002003484068002802D015
:1043F00002689269104770479401002003484068A2
:10440000002802D00268126A104770479401002009
:104410002DE9F04F99B0044680F8341129B10020FD
:10442000A4F8E80019B0BDE8F08F04F5967005F027
:1044300042FB90B9D4E94B1204F580752046FFF792
:1044400053FC0020009003460246014601A802F0FA
:10445000A6FB0168E96240682863B4F8E80098B1F7
:104460000020FD4F80F00105386920B107F11400EC
:1044700005F021FB50B1002DD4D001A807F096FD26
:104480003E8804F1A80520E00120EAE7F248143054
:1044900001F004FAD7E905122046FFF725FC0020B9
:1044A000009003460246014601A802F078FB01682D
:1044B00079614068B861E0E705EBC60001684268D1
:1044C00001A807F064FD761CB6B2B4F8E800B0426B
:1044D000F2D8E148068804F1EA00169009E016983F
:1044E00000EBC600016842682046FFF7FDFB761C22
:1044F000B6B2B4F82A01B042F1D8DFF860A3DAF816
:10450000000090F84800012804D0022877D0D24853
:104510000688BCE1DFF840B30026BBF800700CE071
:10452000B8B205EBC000804605F0C0FAB04203DD2A
:10453000404605F0BBFA06467F1CB4F8E800B842D6
:10454000EEDCC74800880F2801D9C00800E0012030
:1045500081460020009003460246014612A802F060
:104560001EFBD04653E0D1F894108847074612A8A6
:1045700005F09CFA4844B8420BDDB74209DA12A8AC
:1045800005F094FAB8423BDD12A805F08FFA002836
:1045900036DD12A805F08AFAB84201DCBE4200DA24
:1045A000374612A805F082FA3F1A12A805F07EFAE3
:1045B000024638B20090AB480021008803B217A829
:1045C00002F0EDFA0168129140681390BBF8007098
:1045D00010E005EBC70112AA14A805F0DAFA14A836
:1045E00005F069FA20B9206814A9426B204690476B
:1045F0007F1CBFB2B4F8E800B84208D9E9E711E07F
:10460000D8F800000168D1F890200121904712A845
:1046100005F04CFAB042D8F800000168A3DB496A03
:10462000884738E190480078012879D00DE18A4820
:104630004FF00008B5F900600088401C87B226E002
:1046400005EBC000814605F02CFA8246B9F906B0A8
:1046500005EBC700814605F024FA5045514606DDBA
:10466000B9F90060B846084656450ADB0DE00AD1A4
:10467000B9F90610594500DDB846B9F90000B04255
:1046800003DB064601E0B042FBDC7F1CBFB2B4F89E
:10469000E800B8421FFA88F0D2D805EBC0073868A6
:1046A000129078681390BDF94C00142801DABDF916
:1046B000486012A805F0F5F9801BADF84C0012A86F
:1046C000ADF8486001F090F812A805F0F4F938BB95
:1046D000BDF94E00142800DD1420BDF84C3081B225
:1046E0005E48BDF84A2000680091BDF84810066891
:1046F000D6F88860B0470646ADF84E0012A801F023
:10470000CDF8206812A9426B20469047B888801BDC
:1047100000B2B88020B91FFA88F1284607F021FCC2
:10472000B4F8E800002882D1B5E04FF0000928462F
:1047300005F0BCF9064648480088401C87B228E0CE
:1047400005EBC00005EBC708B0F902A0B0F90410F2
:10475000B8F90200504508DAB946404605F0A6F916
:10476000504551460CDD0E4611E00DD1B8F904005C
:10477000884200DDB946404605F098F9B04206DCB3
:10478000404605F093F901E0B04200DA06467F1C8E
:10479000BFB2B4F8E800B8421FFA89F0D0D805EBF0
:1047A000C007B7F90600142803DA384605F07EF989
:1047B0000646384605F07FF9F0BB12A802F0F6F97C
:1047C0003888ADF84800B7F90200ADF84A00B9885A
:1047D000301A1428ADF84C1000DD142086B238468B
:1047E00005F064F9BDF94A10401AB04205DC3846BC
:1047F00005F05CF9BDF94A10461A1848B1B2BDF887
:104800004C30BDF84A2000680091BDF84810066899
:10481000D6F88860B047ADF84E0012A92068426B08
:10482000204690477888BDF84E1008447880F88874
:10483000BDF84E10401A00E007E000B2F88020B941
:104840001FFA89F1284607F08CFBB4F8E80000282D
:104850007FF46BAF1FE0000094010020E80100200E
:10486000E0010020DE010020D801002005EBC60099
:10487000016812914068139012A805F01CF920B944
:10488000206812A9426B20469047761CB6B2B4F855
:10489000E800B042EAD80D48007800283FF4C2ADE5
:1048A0000020A4F82A010A48048809E001A800EBC6
:1048B000C40001684268169807F069FB641CA4B242
:1048C000BDF84400A042F1D8ACE50000D9010020B9
:1048D000940100200022A0F8842011464318491CAE
:1048E000202983F88820F9DB7047704770B50646A9
:1048F000194886B00C4600221146008800B200908C
:104900001648008803B203A802F049F9024621467E
:1049100001A805F03EF90199114D2160029A6260EB
:104920006868002805D096F8343123B13046FFF787
:10493000DBF906B070BD01688A6821469047286996
:1049400018B101688A6821469047064800680168E6
:10495000CA6921469047ECE7E0010020DE01002013
:1049600094010020E80100203EB5044608480022DA
:104970001146008800B200900648008803B201A8E2
:1049800002F00DF9206801A9426B204690473EBD18
:10499000E0010020DE010020F8B517490025016084
:1049A000A0F88450A83007F001FB423007F0FEFA6F
:1049B0000023009542301A46194602F0F0F80572BD
:1049C000A0F5967445720D490D48FCF713F800B137
:1049D00001200C4E08B1358006E04FF48060308035
:1049E0000220706002F044FBF56020467560B560FF
:1049F000FFF770FF2046F8BDB0C30008CDB5E8B59D
:104A0000C2A507F494010020014908607047000026
:104A1000D401002030B5044C039D04600171C280B4
:104A20000381458130BD0000F4C3000801210172FB
:104A30007047704730B41568029C85605268C26048
:104A400000220274C0E900124261C0E9113402760A
:104A500002870284A0F8402030BC00F097BB70B5FC
:104A60001C460B46A1F5C06605460498B6F5407F86
:104A7000216805D20A460146284600F05DFA13E097
:104A8000A2F560637F2B05D80A460146284600F050
:104A9000ACF809E095F8610038B1A2F51060023871
:104AA00003D1284600F00FFA2060206810B105F00D
:104AB00094FC18B1002085F8610070BD0120FAE770
:104AC00070B500F122050446008FB8B1A98A401ED6
:104AD00035F81160E882481C80B2A8820A2801D308
:104AE0000A38A882204600F03DF9208C1A340228AA
:104AF00001D2401CE080A08810B103E0FBF7EDFC80
:104B00000220A08080B2401E80B2A08024F81060F5
:104B1000304670BD2DE9F04700F11A050C46002122
:104B2000DDF8208017E0561AB5F806C0761E34F876
:104B3000027BB6B2B44501D8FBF7CFFCB5F804C090
:104B40006644B6B2022E00D3B61E35F81660BE42D9
:104B500011D1491C89B29142E5D3002600F1220906
:104B600003EB08070CE034F8025B3146484607F0D7
:104B700025F9A84202D00020BDE8F087761CB6B225
:104B8000B742F0D80120F7E72DE9F84F9146824669
:104B900031F8020B0C46050B31F815204A4502D0BE
:104BA0000020BDE8F88F00F00F082A46C0F3032765
:104BB0002146C0F303163B4650460096FFF7AAFF76
:104BC00050B1E81942463044394604EB40035046A0
:104BD00000F00EFB0120E4E704EB450000EB47008A
:104BE00000EB460101EB4801D2E72DE9F05F5FEAF7
:104BF00002088B4604464FF0000921D098F80D00BA
:104C000004F14C0A98F8071000F01000B8F80450AE
:104C100041EA0016A5F63161F7101E2953D2DFE8EC
:104C200001F018525218181818414141525252526C
:104C30005252525252525252181818181818181824
:104C4000A4F85A904846A4F85C90A4F85E90BDE899
:104C5000F09F04F1220007F0C0F840F6336188426B
:104C600008D1DBF80000C2685846904705F0A3FB66
:104C7000A4F85A00F119B4F85A000E22084441462B
:104C800024F85A0F5046FBF74AFCB4F9001050467E
:104C900004F09CFD14F8050C2179401A04F8050C69
:104CA0005046D4E70E2241465046FBF738FC34F814
:104CB0005C0FC01B01B2504604F088FD2088F1193A
:104CC000401A2080ECE7A5F560601B3822D0A5F5DE
:104CD00060601D381ED0A5F560601F381AD04046B0
:104CE00005F069FBA4F85A00A5F56060093840F6A4
:104CF000136A21D055451FD0A5F5606019381BD027
:104D0000A4F85E90404605F056FB801BA4F85C00BA
:104D100040469CE76D1E5A46ABB24146204604F021
:104D20006DFD05F048FBA4F85A00404605F055FB20
:104D3000810801EB501012E0404605F04EFB55454E
:104D4000074602D140F60C6500E06D1E5A46ABB234
:104D50004146204604F052FD05F03FFB381AA4F806
:104D60005E00CFE770B500F12206054613E005F1BD
:104D70003A04E088C0B1A188401E34F81110E080E8
:104D8000A088401C80B2A080022801D3801EA08091
:104D9000304607F02BF8B5F8400070B1304607F008
:104DA00036F90028E3D008E0FBF797FB284600F02F
:104DB000EFF90146304607F019F8304607F027F9B9
:104DC0000028F3D070BD70B50546406C58B305F1AE
:104DD0002200044607F001F828B3284600F086F8C0
:104DE000E08A012812D9A08A401C80B20A2800D388
:104DF0000A3840F63F16214634F81000B04212D16E
:104E0000084606F0EAFFE18A012901D8FBF765FBB5
:104E1000A18A491C89B20A2900D3002124F8110073
:104E2000A08A24F810602846BDE87040FFF748BE0D
:104E30002DE9F8431E4615460C460746223006F07B
:104E4000CCFF804621463846FFF7BDFF04000FD057
:104E500028682146C268284690473060334622467B
:104E6000414638460095FFF7FAFD2046BDE8F88335
:104E700000203060F9E72DE9F84F1E4615460C4634
:104E800007462230DDE90A9806F0A7FF8246214650
:104E90003846FFF798FF040012D0286843464A4678
:104EA0002146D0F808C02846E04730603346224605
:104EB000514638460095FFF7D2FD2046BDE8F88FF1
:104EC00000203060F9E770B5044669B104F14C0088
:104ED0000E220546FBF723FB284605F077FA4042F1
:104EE00084F85500284670BD084670BD2DE9F0478E
:104EF000456C0646002406F1220768884FEA5008F0
:104F000013E0384606F069FF814603462A464146CB
:104F1000304604F07EFC00280BD005EB40014A46E9
:104F20003046FFF731FE002803D02046641C0A28D3
:104F3000E7DBBDE8F08700002DE9F047924F16004F
:104F400004460AD0727BF07902F01002B18840EA80
:104F50000215042D0ADDA81009E0A4F85A70A4F87F
:104F60005C70A0F85E701046BDE8F087012040F24A
:104F7000DB6399428046A1F2DB6004F14C0912D058
:104F800048DC40F253629142A1F253600BD020DC26
:104F900040F219629142A1F2196079D004DCA1F5C6
:104FA000C26108297ED873E0352871D008DC012859
:104FB00005D032286CD033286AD0342872D199E0D9
:104FC000362865D037286ED0382861D0392869D185
:104FD0005EE00A285CD008DC0A2863D2DFE800F033
:104FE000BD588A8A58585858588A832850D008DCA7
:104FF0000B284DD00C287DD01D2849D0212851D117
:1050000046E0842844D0852842D0862840D087288E
:1050100048D13DE0B0F5047F3AD029DC102837D0E4
:105020000BDCA0F104000C283CD2DFE800F03131A9
:105030003131633196963131966340F20B229042C2
:10504000A0F20B2156D00ADC112821D0122851D011
:10505000A0F5007009381BD001287ED118E0012985
:1050600016D0022914D0032944D0042975D10FE0A9
:10507000A0F21120132870D2DFE800F00A3C3C3C7B
:105080000A0A3C0A0A0A3C0A0A3C3C0A0A0A0A00C2
:10509000B4F95A00B8420CD1B4F95C00B84208D156
:1050A000304601E059E025E005F085F9A4F85A0002
:1050B0002BE00E2231464846FBF731FAB4F95E0088
:1050C000B84208D0304605F081F994F85E10A1EBA3
:1050D000500084F85500B4F95A00B84204D028446E
:1050E00001B2484604F072FB484605F064F9A4F8A2
:1050F0005A002DE0B4F95A00B8420AD1B4F95C0064
:10510000B84206D1304605F056F9401BA4F85C00C1
:1051100037E00E2231464846FBF701FAB4F95E004B
:10512000B84208D0304605F051F994F85E10A1EB72
:10513000500084F85500B4F95C00B84205D0A0EBEB
:10514000080001B2484604F041FB484605F033F937
:10515000401BA4F85C00484606E7304605F02BF9F2
:10516000A4F85A00401BA4F85C005A34304605F0FD
:105170002DF940000521B0FBF1F096F90910084423
:10518000A0803046F0E600000080FFFFFFF7EABD98
:10519000416811B9016849B34160017E49B1416973
:1051A00029B10A881AB10A46891C416109E0002127
:1051B000017641680A88CAB1022A04D00A46891CCD
:1051C000416010887047891C4160017C0229DFD250
:1051D00000EB8102491C0174916841610029D7D01C
:1051E00009880029D4D001210176D1E70020704739
:1051F0002DE9F05F8A469B465245164600F122048F
:10520000804624D9A6EB0A001FFA80F900271CE08B
:10521000E18A08F13A05204631B3491E89B2C182BC
:1052200006F0CCFD0146E888401C02281CD8E88026
:10523000A888012801D2801CA880A888401E80B2BE
:10524000A8807F1CBFB225F810104F45E0D351460F
:10525000204606F0E1FD15E0761EE08AB6B2401C5D
:105260000A283BF8161001D9FBF737F9E082A08A2B
:10527000012801D20A30A082A08A401E80B2A082FA
:1052800024F81010002EE7D14046BDE8F05FFFF78C
:1052900069BD70B504460025056045600220207494
:1052A000402065610E212576E5832584E5862587E6
:1052B000E5870553656404F14C00A564FBF7A6F986
:1052C000A4F85A500120A4F85C50A4F85E5084F869
:1052D0006000204684F86150FFF758FF204670BDFB
:1052E00070B50D460446606801684A68904700281A
:1052F000F9D10D4E30680168896F8847FEF7CAFC06
:105300003068012100F0F8FB606801688A6829466E
:1053100090472068C16A2046884730680168496F15
:10532000BDE8704008470000E80100207047704762
:10533000016809690847406801680968084710B5AD
:105340000446406801680968884738B9207A28B15E
:1053500060680168496988470020207260680168B8
:105360000968884718B1BDE81040FEF79BBC20686B
:10537000416A2046BDE81040084710B5FEF782FCA0
:10538000BDE81040FEF778BC0168496C084710B5CD
:105390000446406801680968884700280BD1607A94
:1053A000002808D0207A002805D12068416A2046CC
:1053B000BDE81040084710BD70B5044601202072BA
:1053C000606801688969884705460068402832D0CE
:1053D0000CDC04281CD004DC01282CD0022815D1B8
:1053E00022E008281AD0202810D124E0B0F5007F50
:1053F00021D005DC80281ED0B0F5807F06D11AE0D0
:10540000B0F5806F17D0B0F5006F0DD0FBF765F8E1
:105410002068297F826B2046904710E02068297F12
:10542000826B2046904703E02068C16B2046884786
:105430002068426B05E02068C16B204688472068E1
:10544000026B29462046BDE8704010472DE9F04F19
:1054500087B08146DDE9178CDDE91367DDE9114589
:105460001098DDF864B0DDF858A08DE8F1114846D9
:1054700004F058F80549159A40F8181B80E8040C08
:105480001A99C16007B01838BDE8F08F2CC4000825
:10549000704710B50446806A00280BD00168C968BF
:1054A0008847002806D0A06A01688A682146BDE8BE
:1054B0001040104710BD70B590F82C500446087984
:1054C0000E4628B1002084F82C0018B125B109E05F
:1054D0000120F8E7002D0ED020684169204688475A
:1054E000002D08D03079012805D12068C16D2046F3
:1054F000BDE87040084770BD10B50446D0F83C01C7
:1055000000280CD00168C9688847002807D0D4F863
:105510003C010168896888470020C4F83C0110BD3F
:105520002DE9FC411B4C0546D5E90060A16969B332
:10553000A06801EBD17101AF00EB6100CDE9007013
:10554000A3692A68E169206800F040F800970646E0
:10555000A3696A68216A606800F038F80644D4E9F3
:10556000051000EBD07001EB6000CDE90070A3697D
:105570002A68616AE06800F029F800978046A3690C
:105580006A68A16A206900F021F84044C5E900601A
:10559000BDE8FC81948C002018B10021020C02D0DF
:1055A00003E02020704710210004020E01D1000208
:1055B0000831020F01D10001091D820F01D18000C5
:1055C000891C002800DB491C084670472DE9FE476E
:1055D0005FEA00081D4617468A460B9C4FF00106FD
:1055E0004FF0FF3005D52168C8F100080646494252
:1055F0002160002F04DA2168574276424942216037
:10560000002D4FF0010901DA5D4281463846FFF76F
:10561000C3FF03463A4602A85146CDE90050404632
:1056200000F021F821684E45029A114491FBF5F2F1
:10563000104491FBF5F205FB1211216000D04042AD
:10564000002E03DAC1F10001216005E003DD00292D
:1056500007DA294403E004DA002902DD491B21604E
:10566000401EBDE8FE872DE9FF4F0D009B46944686
:105670000746DDE90D4640D03CFA05F04FD0012247
:105680008246AA4007FA05F9B9FBF4F1521E0CEA6A
:10569000020CE046604601FB0AF10391FFF77CFF34
:1056A000CDE9004601462B463A464046FFF7DBFF70
:1056B000039900EB0108B9FBF4F004FB1090FFF72D
:1056C0006BFF0346B9FBF4F005EB0B0104FB1092F2
:1056D00002A8CDE900405046FFF7C5FF31684044BD
:1056E000029A1144B1FBF4F21044B1FBF4F204FB52
:1056F0001211316004B0BDE8F08FBBF1000F184605
:1057000008D00B463A46CDE9004601466046FFF711
:10571000AAFFEFE74FF0FF3030604008EAE707FBF1
:105720000CF7B7FBF4F004FB10703060B7FBF4F03B
:10573000E0E700000249016000218180704700001D
:10574000C8C40008704710B50446D4E90320801A85
:10575000002801DCA368184401280DD9606800EB1B
:1057600042102022FAF720FFD4E90210401C8142A7
:1057700000D8401AE06010BDFAF7AFFE10B504463D
:10578000006801682046884708B1FAF7A6FE20693C
:10579000A168401C814200D8401A206110BD4168B8
:1057A000006901EB40107047D0E90321891A0029F4
:1057B00001DC80680144012901DC012070470020E0
:1057C0007047D0E90310814201D1012070470020C9
:1057D00070470000034B0360C0E901120021C16063
:1057E00001617047FCC400080A49097800290FD0FC
:1057F00001290DD102888188438803800A44064B21
:10580000521E1B889A1A521E4280C2888280C18012
:1058100070470000D8010020E401002010B50446C4
:105820000A48007800280FD001280DD12088A288CE
:1058300010440A46401E2080A11C204600F01CF89F
:10584000A088E188A180E08010BD0000D801002080
:10585000074A1278002A09D0012A07D102880B884A
:10586000038004480088801A401E088070470000AA
:10587000D8010020E4010020074B10B51B78002B55
:1058800008D0012B06D103880C8804809088C01AA8
:10589000401E088010BD0000D8010020094910B545
:1058A000097800290DD001290BD1074C4388C18804
:1058B000028824880B44E31A038042808288818016
:1058C000C28010BDD8010020E4010020074A10B5B5
:1058D0001278002A09D0012A07D1054C0B880288CA
:1058E0002488E31A5B1E03800A8010BDD8010020C3
:1058F000E401002010B526210446FAF787FE204671
:1059000001F05AFD0349FF22016080F826200022A1
:10591000826210BD20C50008704700000449497824
:1059200021B190F86A0008B100207047012070474B
:10593000D801002010B50446FEF770F960680168D0
:10594000C9688847E0680168896888472068016FEE
:105950002046BDE81040084790F8771019B140681C
:105960000168096808470020704700002DE9FF4FD3
:1059700089B08A4604466846DDE91665DDE9198B7B
:10598000DDE91B7901F020FACDE9007A1898ADF82D
:105990001460ADF81650ADF8180020468DF81CB014
:1059A00000F0C0F8DDE90B120346204603F0CCFFFF
:1059B000049012484089ADF81A0000F045F90168DA
:1059C000496A88478DF81E008DF81D003EB135B13B
:1059D0002068816B204688470099084201D1FAF778
:1059E0007CFDCDF80C808DF81F90606801684A68D6
:1059F000694690470DB0BDE8F08F0000D801002047
:105A0000704710B5044600F051F82068D0F8A41093
:105A10002046BDE81040084710B504460C484078C1
:105A200058B994F84800022807D06068FFF783FC53
:105A300018B16168487A0028FCD0FEF723F90021EC
:105A4000204600F059F82046BDE8104000F06AB842
:105A5000D80100202DE9FF4F8BB0044618A81D4641
:105A6000164690E8800F00F0EFF80168496A884711
:105A70000A4A022101235289CDF824B0CDE907104A
:105A8000CDE905328DE8A007206800220C99334645
:105A9000C56B2046A8470FB0BDE8F08FD8010020A5
:105AA000012180F84B1080F86910704710B504464A
:105AB00090F86A00002812D0022001F024F800209B
:105AC00084F86A0084F86900204600F02BF801464B
:105AD0002068D0F8B0202046BDE81040104710BD27
